:020000040800F2
:1000000060190020B5010008313300089D2F000859
:100010002D3300084103000851470008000000008C
:10002000000000000000000000000000F13D00089A
:100030006905000800000000113C0008793E000836
:10004000CF010008CF010008CF010008CF01000850
:10005000CF010008CF010008CF010008CF01000840
:10006000CF010008CF010008CF010008CF01000830
:10007000CF010008CF010008D9040008E9040008F6
:10008000F904000809050008CF010008CF010008A5
:10009000CF010008CF010008CF010008CF01000800
:1000A000CF010008CF010008CF010008CF010008F0
:1000B000CF010008CF010008493F0008CF01000828
:1000C000CF010008CF010008CF010008CF010008D0
:1000D000CF0100082D4700083D470008CF01000868
:1000E000CF010008CF010008CF01000800F002F89E
:1000F00000F050F814A696E8000CB244B344DA4578
:1001000001D100F047F8BAE80F000FA696E83000DA
:10011000A5EB040504EB0607AAEB0704A7F101070A
:100120004FEA15154FEA3414A4F10104AC4201D38F
:1001300000F030F813F0010F18BFFB1A43F0010371
:1001400000F001F8DBE71847506100007061000023
:10015000103A24BF78C878C1FAD8520724BF30C8F3
:1001600030C144BF04680C60704700007047000055
:100170000023002400250026103A28BF78C1FBD8B0
:10018000520728BF30C148BF0B6070471FB51FBD65
:1001900010B510BD00F058F81146FFF7F7FF04F056
:1001A000A7FC00F076F803B4FFF7F2FF03BC00F001
:1001B0007DF800000948804709480047FEE7FEE750
:1001C000FEE7FEE7FEE7FEE7FEE7FEE7FEE7FEE707
:1001D00004480549054A064B70470000453F0008A2
:1001E000ED00000860130020601900206015002059
:1001F000601500204FF0000200B513469446964665
:10020000203922BFA0E80C50A0E80C50B1F1200129
:10021000BFF4F7AF090728BFA0E80C5048BF0CC0D7
:100220005DF804EB890028BF40F8042B08BF704735
:1002300048BF20F8022B11F0804F18BF00F8012BA7
:100240007047704770477047754600F02BF8AE4610
:1002500005006946534620F00700854618B020B5D2
:10026000FFF7B6FFBDE820404FF000064FF0000753
:100270004FF000084FF0000BAC46ACE8C009ACE80A
:10028000C009ACE8C009ACE8C00921F007018D46FF
:10029000704710B50446AFF300802046BDE810401B
:1002A000FFF781BF00487047A800002001491820CF
:1002B000ABBEFEE7260002007047000080B584B0A8
:1002C000029000200190029800688068C00770B317
:1002D000FFE702980168886820F00100886001F05B
:1002E00013F80190FFE7029800688068C007E8B142
:1002F000FFE701F009F80199401A032815D3FFE739
:10030000029800688068C00770B1FFE70299886AA8
:1003100040F0100088620299C86A40F00100C8628B
:1003200001208DF80F0006E0FFE7DCE7FFE7002083
:100330008DF80F00FFE79DF80F0004B080BD0000AE
:10034000FFE7FEE780B586B005908DF813100392A5
:100350000520042100F056F801200021019104F04D
:10036000F9F90A20802103F055FD01988DF80B0062
:10037000FFE79DF80B009DF8131088420EDAFFE7A7
:1003800005989DF80B10415C092004F0E3F9FFE7A4
:100390009DF80B0001308DF80B00EAE701200321E6
:1003A00004F0D8F9FF208DF80B00FFE7052003F0DB
:1003B0007BFC8DF80A009DF80B0001388DF80B00CE
:1003C000FFE79DF80B100020009049B1FFE79DF872
:1003D0000A0000F00401012080EA91000090FFE78C
:1003E0000098C0070028E1D1FFE7222003F05CFC61
:1003F00003990870212003F057FC0399487006B058
:1004000080BD000080B582B08DF807008DF8061021
:1004100000208DF805009DF8070003F045FC8DF8DD
:1004200005009DF807009DF805109DF806209143F2
:1004300004F090F902B080BD80B584B040F20400B1
:10044000C2F2000000680068006800F0100100209F
:10045000B0EB111F20D0FFE7FFE70020029040F231
:100460000400C2F20000016809680968029100688E
:100470000068406802900298FFE740F20400C2F270
:1004800000000190006802F023F901990868CA8908
:10049000043102F01FFD03E04FF0FF30039002E053
:1004A00000200390FFE7039804B080BD80B582B0C0
:1004B00040F20401C2F200010191086804310122F6
:1004C00002F034FD019800680168C86840F010002F
:1004D000C86002B080BD000080B540F29410C2F246
:1004E000000000F04FFB80BD80B540F25010C2F21A
:1004F000000000F047FB80BD80B540F2D810C2F28A
:10050000000000F03FFB80BD80B540F21C20C2F22D
:10051000000000F037FB80BD84B00390029101928F
:1005200000930398C16B026C0120904048600098D2
:1005300003990968486003984068102809D1FFE7CB
:100540000198039909688860029803990968C8604E
:1005500008E002980399096888600198039909687E
:10056000C860FFE704B070477047000080B582B0F4
:1005700040F21401C2F20001019108680431012225
:1005800002F0D4FC019800680168C86840F01000CF
:10059000C86002B080BD000081B0EFF3108072B679
:1005A0000090FFE7FEE7000085B003900291002075
:1005B0008DF807000090FFE7039890F824000128C9
:1005C00004D1FFE702208DF81300C3E00399012056
:1005D00081F82400FFE7FFE702984068062812D858
:1005E000FFE703980068406B029A1168526802EBBB
:1005F0008202053A1F239340984391400843039990
:100600000968486329E0029840680C2812D8FFE77F
:1006100003980068006B029A1168526802EB82022C
:10062000233A1F2393409843914008430399096854
:10063000086311E003980068C06A029A1168526862
:1006400002EB8202413A1F239340984391400843B2
:1006500003990968C862FFE7FFE7029800680A2863
:1006600012D3FFE703980068C06802990A68896896
:1006700002EB42021E3A07239340984391400843FD
:1006800003990968C86010E003980068006902993E
:100690000A68896802EB420207239340984391401D
:1006A0000843039909680861FFE702980068102869
:1006B00005D0FFE702980068112840D1FFE70398B2
:1006C000006842F20041C4F2010188422DD1FFE7E7
:1006D0000398006880680002002825D4FFE703988B
:1006E0000168886840F4000088600298006810285B
:1006F00019D1FFE740F20000C2F2000000684DF699
:100700008361C4F21B31A0FB0110800C00EB800060
:1007100040000090FFE7009820B1FFE70098013803
:100720000090F8E7FFE7FFE708E00399886A40F0E8
:100730002000886201208DF80700FFE7FFE7FFE750
:100740000399002081F82400FFE79DF807008DF849
:100750001300FFE79DF8130005B0704780B588B01F
:10076000069000208DF817000490039002900698E0
:1007700020B9FFE701208DF81F00F4E0069880689B
:1007800030B1FFE70698007D08B1FFE7FFE7FFE71C
:100790000698806A50B9FFE706990020C86206995A
:1007A00081F82400069800F0E3F8FFE70698FFF7C9
:1007B00085FD8DF817000698806AC006002800F1B4
:1007C000C480FFE79DF81700002840F0BE80FFE7D7
:1007D0000698806A40F0020020F4885006998862EA
:1007E00006994868CA691043097B40EA41010398A9
:1007F00008430390069881680120B1F5807F01903D
:1008000008D0FFE7069880680138B0FA80F0400908
:100810000190FFE701990498CA0740F48071002A0B
:1008200018BF084604900698007D01281ED1FFE7F6
:100830000698007B70B9FFE7069881694EF20000C8
:10084000CFF6FF7000EB41300499084340F400609C
:1008500004900AE00699886A40F0200088620699B0
:10086000C86A40F00100C862FFE7FFE70698006829
:10087000406820F469400499084306990968486073
:100880000698006880684FF2FD71CFF6E17108406C
:1008900003990843069909688860069881680120D1
:1008A000B1F5807F009008D0FFE706988068013896
:1008B000B0FA80F040090090FFE7009800F00100D6
:1008C000002818BF4FF48070B0F5807F09D1FFE792
:1008D000069801690020CFF6F07000EB01500290FD
:1008E000FFE706980068C06A20F470000299084388
:1008F00006990968C86206980068806840F6FE613B
:10090000CFF61F710840039988420CD1FFE7069982
:100910000020C8620698806A40F0010020F00200C2
:100920000699886210E00698806A40F0100020F076
:100930000200069988620699C86A40F00100C86200
:1009400001208DF81700FFE708E00699886A40F05B
:100950001000886201208DF81700FFE79DF817004E
:100960008DF81F00FFE79DF81F0008B080BD000054
:1009700080B588B007900020069005900490039001
:100980000798006842F20041C4F2010188422AD16E
:10099000FFE7FFE741F21800C4F20200016841F4EA
:1009A00000710160006800F4007002900298FFE797
:1009B000FFE741F21800C4F20200016841F00401AF
:1009C0000160006800F0040001900198FFE710202A
:1009D00003900320049040F60000C4F2010003A934
:1009E00000F0D2FAFFE708B080BD000083B00190AC
:1009F00000208DF80300019890F8210002280DD006
:100A0000FFE7019904208863FFE70199002081F83E
:100A10002000FFE701208DF80B0021E0019801681C
:100A2000086820F00E00086001980168086820F04E
:100A3000010008600198C16B026C01209040486081
:100A4000FFE70199012081F82100FFE701990020CB
:100A500081F82000FFE79DF803008DF80B00FFE709
:100A60009DF80B0003B0704780B588B00790002058
:100A70008DF81B00079890F82100022807D0FFE7A7
:100A800007990420886301208DF81B0076E0079801
:100A90000168086820F00E0008600798016808687F
:100AA00020F001000860079800680821C4F20201E4
:100AB000884203D1FFE70120059047E007980068CE
:100AC0001C21C4F20201884203D1FFE710200490E8
:100AD00039E0079800683021C4F20201884204D14D
:100AE000FFE74FF4807003902AE0079800684421E4
:100AF000C4F20201884204D1FFE74FF48050029013
:100B00001BE0079800685821C4F20201884204D112
:100B1000FFE74FF4803001900CE0079801686C22E9
:100B2000C4F202024FF08070914208BF4FF480106F
:100B30000190FFE701980290FFE702980390FFE71A
:100B400003980490FFE704980590FFE705980421B7
:100B5000C4F2020108600799012081F82100FFE733
:100B60000799002081F82000FFE70798406B20B12B
:100B7000FFE70798416B8847FFE7FFE79DF81B00F9
:100B800008B080BD80B58EB00D900D98C06B006828
:100B90000C900D98006800680B900C980D99096CEA
:100BA000C8404007002875D5FFE79DF82C00400796
:100BB00000286FD5FFE70D980068006880060028C0
:100BC00007D4FFE70D980168086820F0040008606A
:100BD000FFE70D9800680821C4F20201884203D1A2
:100BE000FFE704200A9047E00D9800681C21C4F23A
:100BF0000201884203D1FFE74020099039E00D98B7
:100C000000683021C4F20201884204D1FFE74FF4AA
:100C1000806008902AE00D9800684421C4F2020127
:100C2000884204D1FFE74FF4804007901BE00D9805
:100C300000685821C4F20201884204D1FFE74FF452
:100C4000802006900CE00D9801686C22C4F202022C
:100C50004FF08060914208BF4FF480000690FFE79C
:100C600006980790FFE707980890FFE70898099013
:100C7000FFE709980A90FFE70A980421C4F20201ED
:100C800008600D98C06A20B1FFE70D98C16A8847D7
:100C9000FFE7B8E00C980D99096CC8408007002860
:100CA00040F18080FFE79DF82C008007002879D56F
:100CB000FFE70D9800680068800600280BD4FFE766
:100CC0000D980168086820F00A0008600D9901205D
:100CD00081F82100FFE70D9800680821C4F20201A5
:100CE000884203D1FFE70220059047E00D98006895
:100CF0001C21C4F20201884203D1FFE720200490A6
:100D000039E00D9800683021C4F20201884204D114
:100D1000FFE74FF4007003902AE00D98006844212B
:100D2000C4F20201884204D1FFE74FF40050029060
:100D30001BE00D9800685821C4F20201884204D1DA
:100D4000FFE74FF4003001900CE00D9801686C2231
:100D5000C4F202024FF00070914208BF4FF400103D
:100D60000190FFE701980290FFE702980390FFE7E8
:100D700003980490FFE704980590FFE70598042185
:100D8000C4F202010860FFE70D99002081F82000FD
:100D9000FFE70D98806A20B1FFE70D98816A8847C8
:100DA000FFE72FE00C980D99096CC8400007002858
:100DB00027D5FFE79DF82C000007002821D5FFE785
:100DC0000D980168086820F00E0008600D98C26B4D
:100DD000016C012000FA01F151600D9988630D99B1
:100DE00081F82100FFE70D99002081F82000FFE73E
:100DF0000D98006B20B1FFE70D98016B8847FFE766
:100E0000FFE7FFE7FFE70EB080BD000083B0019071
:100E100000200090019820B9FFE701208DF80B0019
:100E200047E0019908684FF6F872CBF6FD7210445E
:100E30004CF6CD42CCF6CC42A0FB02026FF0030090
:100E400000EA9200086401990020C4F20200C8631D
:100E50000199022081F82100019800680068009043
:100E6000009843F6F0718843009001994868D1F8E2
:100E700008C0CB680A6940EA0C00184310434A696D
:100E800010438A691043C9690143009808430090E0
:100E90000098019909680860019900208863019A07
:100EA000012182F82110019981F820008DF80B00B2
:100EB000FFE79DF80B0003B07047000080B586B0D7
:100EC000049003910292019300208DF80300FFE744
:100ED000049890F82000012804D1FFE702208DF843
:100EE00017004CE00499012081F82000FFE7FFE79C
:100EF000049890F82100012832D1FFE704990220DC
:100F000081F821000499002088630498016808682A
:100F100020F00100086004980399029A019BFFF7F2
:100F2000FBFA0498C06A38B1FFE7049801680868C2
:100F300040F00E0008600CE004980168086820F09A
:100F40000400086004980168086840F00A0008601E
:100F5000FFE704980168086840F00100086009E0B4
:100F6000FFE70499002081F82000FFE702208DF8B8
:100F70000300FFE79DF803008DF81700FFE79DF8D9
:100F8000170006B080BD000090B00F900E910020B9
:100F90000D900990FFE70E9800680D99C840002851
:100FA00000F07F81FFE70D99012088400C900E989A
:100FB00000680C9908400B900B980C99884240F0FF
:100FC0006C81FFE70E9840680590002851D0FFE73C
:100FD000059801283AD0FFE7059802283FD0FFE79F
:100FE000059803285FD0FFE70598112832D0FFE766
:100FF0000598122838D0FFE705980021C1F21101A9
:10100000884236D0FFE705980021C1F212018842DC
:101010002FD0FFE705980021C1F22101884228D096
:10102000FFE705980021C1F22201884221D0FFE7A5
:1010300005980021C1F2310188421AD0FFE70598D6
:101040000021C1F23201884213D02FE00E98C0680F
:1010500009902CE00E98C0680430099027E00E98A3
:10106000C0680830099022E00E98C0680C300990E2
:101070001DE00E98806818B9FFE70420099011E080
:101080000E988068012806D1FFE7082009900C9887
:101090000F99086105E0082009900C980F994861A4
:1010A000FFE7FFE703E00020099000E0FFE70B986F
:1010B000FF2803D8FFE70F98049003E00F9804304F
:1010C0000490FFE7049808900B98FF2804D8FFE7E6
:1010D0000D988000039006E00D996FF01F0000EB63
:1010E00081000390FFE70398079008980068079A2B
:1010F0000F2191408843099991400843089908605D
:101100000E98C079C006002840F1C680FFE7FFE7CF
:1011100041F21800C4F20200016841F001010160CF
:10112000006800F0010006900698FFE70D9820F097
:1011300003000821C4F2010140580A900D9800F004
:10114000030081000F2000FA01F10A9888430A90F9
:101150000F9840F60001C4F20101884203D1FFE775
:101160000020029026E00F9840F60041C4F20101F1
:10117000884203D1FFE70120019018E00F9841F267
:101180000001C4F20101884203D1FFE70220009070
:101190000AE00F9941F20042C4F201020420914298
:1011A00008BF03200090FFE700980190FFE7019837
:1011B0000290FFE702980D9901F00301890000FAFF
:1011C00001F10A9808430A900A980D9921F0030149
:1011D0000822C4F2010288500E988079C0060028C7
:1011E00009D5FFE70B9A40F20841C4F201010868F3
:1011F0001043086008E00B9A40F20841C4F2010174
:10120000086890430860FFE70E9880798006002800
:1012100009D5FFE70B9A40F20C41C4F201010868BE
:101220001043086008E00B9A40F20C41C4F201013F
:10123000086890430860FFE70E98807980070028CF
:1012400009D5FFE70B9A40F20441C4F20101086896
:101250001043086008E00B9A40F20441C4F2010117
:10126000086890430860FFE70E988079C00748B18E
:10127000FFE70B9A40F20041C4F2010108681043F5
:10128000086008E00B9A40F20041C4F201010868CE
:1012900090430860FFE7FFE7FFE70D9801300D90EE
:1012A00079E610B07047000082B00190ADF80210EE
:1012B00001988068BDF80210084204D0FFE70120C1
:1012C0008DF8010003E000208DF80100FFE79DF894
:1012D000010002B07047000082B00190ADF802102A
:1012E0008DF801209DF8010028B1FFE7BDF802004C
:1012F0000199086105E0BDF8020000040199086148
:10130000FFE702B07047000041F25800C2F200004F
:101310000068704740F29C00C2F20000027841F27F
:101320005801C2F2000108681044086070470000CC
:1013300080B542F20001C4F20201086840F01000DA
:101340000860032000F0DEF80F2000F005F800F040
:101350007BF8002080BD000080B58CB00B90002091
:10136000049003908DF80700FFE741F21C00C4F2DF
:101370000200016841F004010160006800F004000F
:1013800000900098FFE706A802A900F0D3FA099898
:101390000490049820B9FFE700F0FCFA059004E0FF
:1013A00000F0F8FA40000590FFE705984DF68361DC
:1013B000C4F21B31A0FB01014FF0FF3000EB914064
:1013C000039040F2B820C2F2000040F60001C4F2DF
:1013D0000001016040F2E731C160039941600021E2
:1013E00001618160816100F063FF8DF807009DF865
:1013F000070028BBFFE740F2B820C2F2000000F06F
:10140000A9FF8DF807009DF80700C0B9FFE71E206F
:1014100000F054F80B980F280CD8FFE70B991E200A
:10142000002200F055F80B9840F2A001C2F2000132
:10143000086003E001208DF80700FFE7FFE7FFE702
:101440009DF807000CB080BD80B584B0FFE741F285
:101450001800C4F20200016841F001010160006857
:1014600000F0010003900398FFE7FFE741F21C0042
:10147000C4F20200016841F080510160006800F090
:10148000805002900298FFE76FF001000F210022C8
:1014900000F01EF8FFE70421C4F201010868019082
:1014A000019820F0E0600190019840F000700190F8
:1014B00001980860FFE704B080BD000080B582B0ED
:1014C0008DF807009DF9070003F092FA02B080BD85
:1014D00080B586B08DF81700049103920020029029
:1014E00003F09EFA02909DF917000190029804996A
:1014F000039A01F01FFF0146019803F099FA06B024
:1015000080BD000080B582B00190019803F0B2FA6E
:1015100002B080BD80B586B0049000200390029098
:1015200004980078C007002800F0AC80FFE7002096
:101530008DF8070041F21C00C4F202000068C000F0
:10154000002813D4FFE7FFE741F21C00C4F20200B9
:10155000016841F080510160006800F08050009007
:101560000098FFE701208DF80700FFE747F2000031
:10157000C4F200000068C005002822D4FFE747F24B
:101580000001C4F20001086840F480700860FFF7B1
:10159000BBFE0390FFE747F20000C4F200000068C2
:1015A000C00500280CD4FFE7FFF7AEFE0399401AF0
:1015B000652804D3FFE703208DF817008AE0EAE7E7
:1015C000FFE741F22000C4F20200006800F440701E
:1015D00002900298E0B3FFE702980499496801F489
:1015E0004071884234D0FFE741F22001C4F2020189
:1015F000086820F44070029040F24042C4F2422257
:101600000120106000201060029808609DF808001A
:10161000C007E0B1FFE7FFF777FE0390FFE741F275
:101620002000C4F202000068800700280ED4FFE703
:10163000FFF76AFE0399401A41F28931884204D3C8
:10164000FFE703208DF8170044E0E8E7FFE7FFE736
:1016500041F22001C4F20201086820F44070049AAB
:101660005268104308609DF80700012809D1FFE780
:1016700041F21C01C4F20201086820F080500860A9
:10168000FFE7FFE704980078800700280CD5FFE704
:1016900041F20401C4F20201086820F44040049AB7
:1016A000926810430860FFE704980078C00600289D
:1016B0000CD5FFE741F20401C4F20201086820F4EE
:1016C0008000049AD26810430860FFE700208DF87C
:1016D0001700FFE79DF8170006B080BD80B584B005
:1016E00002900191029820B9FFE701208DF80F00C8
:1016F0001BE1019842F20001C4F20201096801F005
:101700000701884216D9FFE742F20000C4F2020046
:10171000016821F00701019A11430160006800F09F
:1017200007000199884204D0FFE701208DF80F00DF
:10173000FBE0FFE702980078800700282AD5FFE742
:10174000029800784007002809D5FFE741F204011C
:10175000C4F20201086840F4E0600860FFE7029804
:1017600000780007002809D5FFE741F20401C4F220
:101770000201086840F460500860FFE741F204018C
:10178000C4F20201086820F0F000029A9268104347
:101790000860FFE702980078C007002860D0FFE7E4
:1017A0000298406801280ED1FFE741F20000C4F220
:1017B000020000688003002804D4FFE701208DF8B0
:1017C0000F00B2E021E00298406802280ED1FFE746
:1017D00041F20000C4F2020000688001002804D435
:1017E000FFE701208DF80F009FE00DE041F20000BF
:1017F000C4F2020000688007002804D4FFE701203B
:101800008DF80F0091E0FFE7FFE741F20401C4F219
:101810000201086820F00300029A52681043086031
:10182000FFF772FD0090FFE741F20400C4F20200EE
:10183000006800F00C0002994968B0EB810F0ED0EF
:10184000FFE7FFF761FD0099401A41F289318842B4
:1018500004D3FFE703208DF80F0066E0E4E7FFE71D
:10186000019842F20001C4F20201096801F0070187
:10187000884216D2FFE742F20000C4F2020001687B
:1018800021F00701019A11430160006800F0070090
:101890000199884204D0FFE701208DF80F0044E051
:1018A000FFE702980078400700280CD5FFE741F2D7
:1018B0000401C4F20201086820F4E060029AD268D0
:1018C00010430860FFE702980078000700280DD554
:1018D000FFE741F20401C4F20201086820F46050FD
:1018E000029A126940EAC2000860FFE700F076F849
:1018F00041F20401C4F202010968C9B20A0946F2C0
:101900005021C0F60001895CC84040F20001C2F2DB
:101910000001086040F2A000C2F200000068FFF77A
:101920001BFD00208DF80F00FFE79DF80F0004B0AD
:1019300080BD000082B00190009101990F200860E5
:1019400041F20400C4F20200016801F00301019AAF
:101950005160016801F0F001019A9160016801F4A1
:10196000E061019AD160006800F46050C0080199FC
:10197000086142F20000C4F20200006800F00700B3
:101980000099086002B0704740F20000C2F2000007
:101990000068704780B5FFF7F7FF41F20401C4F219
:1019A00002010968C1F3022246F26021C0F600017B
:1019B000895CC84080BD000080B5FFF7E5FF41F2BB
:1019C0000401C4F202010968C1F3C22246F2602197
:1019D000C0F60001895CC84080BD000086B00020D0
:1019E0000590049003900290019041F20400C4F22B
:1019F000020000680590059800F00C000146009177
:101A000000283FD0FFE70098042804D0FFE70098A3
:101A1000082806D037E041F20020C0F27A00019099
:101A200037E00598C0F3834146F26820C0F6000015
:101A3000405C02909DF81600C007C0B1FFE741F27C
:101A40000400C4F202000068C0F3404146F278206E
:101A5000C0F60000405C0490029841F20021C0F200
:101A60007A0148430499B0FBF1F0039007E0029833
:101A700040F60011C0F23D0148430390FFE7039890
:101A8000019006E0FFE741F20020C0F27A000190E9
:101A9000FFE7019806B0704780B586B004900498BF
:101AA00020B9FFE701208DF817002EE30498007895
:101AB000C007002800F0AE80FFE741F20400C4F246
:101AC0000200006800F00C00042813D0FFE741F288
:101AD0000400C4F20200006800F00C0008281BD1CA
:101AE000FFE741F20400C4F202000068C0030028CE
:101AF00012D5FFE741F20000C4F202000068800343
:101B0000002808D5FFE70498406820B9FFE70120C6
:101B10008DF81700F9E27CE0FFE704984068B0F523
:101B2000803F09D1FFE741F20001C4F202010868D9
:101B300040F48030086032E00498406868B9FFE7FC
:101B400041F20001C4F20201086820F4803008600C
:101B5000086820F48020086020E004984068B0F510
:101B6000A02F0DD1FFE741F20001C4F20201086885
:101B700040F480200860086840F4803008600CE081
:101B800041F20001C4F20201086820F480300860CC
:101B9000086820F480200860FFE7FFE7FFE7FFE721
:101BA00004984068D0B1FFE7FFF7AEFB0390FFE772
:101BB00041F20000C4F202000068800300280CD447
:101BC000FFE7FFF7A1FB0399401A652804D3FFE75D
:101BD00003208DF8170098E2EAE719E0FFF794FB7D
:101BE0000390FFE741F20000C4F2020000688003A6
:101BF00000280CD5FFE7FFF787FB0399401A6528FB
:101C000004D3FFE703208DF817007EE2EAE7FFE741
:101C1000FFE7FFE7049800788007002840F18D80F7
:101C2000FFE741F20400C4F20200006810F00C0F5C
:101C300013D0FFE741F20400C4F20200006800F094
:101C40000C00082829D1FFE741F20400C4F2020089
:101C50000068C003002820D4FFE741F20000C4F26E
:101C6000020000688007002809D5FFE70498006992
:101C7000012804D0FFE701208DF8170045E241F26A
:101C80000001C4F20201086820F0F800049A5269C9
:101C900040EAC2000860FFE74EE00498006958B3CC
:101CA000FFE70021C4F2422101200860FFF72CFB6E
:101CB0000390FFE741F20000C4F2020000688007D1
:101CC00000280CD4FFE7FFF71FFB0399401A0328F5
:101CD00004D3FFE703208DF8170016E2EAE741F28C
:101CE0000001C4F20201086820F0F800049A526969
:101CF00040EAC20008601EE00021C4F24221002038
:101D00000860FFF701FB0390FFE741F20000C4F217
:101D100002000068800700280CD5FFE7FFF7F4FAFF
:101D20000399401A032804D3FFE703208DF8170016
:101D3000EBE1EAE7FFE7FFE7FFE704980078000739
:101D4000002848D5FFE70498806918B3FFE740F200
:101D50008041C4F2422101200860FFF7D5FA0390C8
:101D6000FFE741F22400C4F2020000688007002867
:101D70000CD4FFE7FFF7C8FA0399401A032804D3ED
:101D8000FFE703208DF81700BFE1EAE7012001F02B
:101D900061FF1FE040F28041C4F242210020086050
:101DA000FFF7B2FA0390FFE741F22400C4F2020009
:101DB0000068800700280CD5FFE7FFF7A5FA039914
:101DC000401A032804D3FFE703208DF817009CE195
:101DD000EAE7FFE7FFE7049800784007002840F1B2
:101DE000D880FFE700208DF8070041F21C00C4F204
:101DF00002000068C000002813D4FFE7FFE741F2AB
:101E00001C00C4F20200016841F0805101600068CA
:101E100000F0805000900098FFE701208DF8070047
:101E2000FFE747F20000C4F200000068C005002888
:101E300022D4FFE747F20001C4F20001086840F431
:101E400080700860FFF760FA0390FFE747F2000038
:101E5000C4F200000068C00500280CD4FFE7FFF7BB
:101E600053FA0399401A652804D3FFE703208DF83D
:101E700017004AE1EAE7FFE7FFE70498C068012896
:101E800009D1FFE741F22001C4F20201086840F0E5
:101E90000100086031E00498C06868B9FFE741F2CA
:101EA0002001C4F20201086820F0010008600868FF
:101EB00020F0040008601FE00498C06805280DD1D8
:101EC000FFE741F22001C4F20201086840F004007B
:101ED0000860086840F0010008600CE041F2200151
:101EE000C4F20201086820F001000860086820F0D0
:101EF00004000860FFE7FFE7FFE7FFE70498C0681A
:101F0000E0B1FFE7FFF700FA0390FFE741F220009E
:101F1000C4F202000068800700280ED4FFE7FFF734
:101F2000F3F90399401A41F28931884204D3FFE75B
:101F300003208DF81700E8E0E8E71BE0FFF7E4F97D
:101F40000390FFE741F22000C4F20200006880071E
:101F500000280ED5FFE7FFF7D7F90399401A41F2A1
:101F60008931884204D3FFE703208DF81700CCE0C5
:101F7000E8E7FFE79DF80700012809D1FFE741F2F4
:101F80001C01C4F20201086820F080500860FFE7DD
:101F9000FFE70498C069002800F0B380FFE741F232
:101FA0000400C4F20200006800F00C00082800F0F1
:101FB0008280FFE70498C06902285CD1FFE76021B6
:101FC000C4F2422100200860FFF79EF90390FFE76A
:101FD00041F20000C4F202000068800100280CD524
:101FE000FFE7FFF791F90399401A032804D3FFE7AD
:101FF00003208DF8170088E0EAE70498006AB0F53E
:10200000803F0CD1FFE741F20401C4F202010868ED
:1020100020F40030049A926810430860FFE741F210
:102020000401C4F20201086820F47410049B1A6AC7
:102030005B6A1A43104308606021C4F24221012008
:102040000860FFF761F90390FFE741F20000C4F276
:1020500002000068800100280CD4FFE7FFF754F964
:102060000399401A032804D3FFE703208DF81700D3
:102070004BE0EAE71EE06021C4F242210020086044
:10208000FFF742F90390FFE741F20000C4F20200BB
:102090000068800100280CD5FFE7FFF735F90399A8
:1020A000401A032804D3FFE703208DF817002CE023
:1020B000EAE7FFE724E00498C069012804D1FFE7BC
:1020C00001208DF8170020E041F20400C4F2020064
:1020D00000680290029800F480300499096A8842EE
:1020E00008D1FFE7029800F470100499496A884209
:1020F00004D0FFE701208DF8170006E0FFE7FFE7B7
:10210000FFE700208DF81700FFE79DF8170006B0E5
:1021100080BD000080B584B00290029820B9FFE72E
:1021200001208DF80F006DE00298406A60B9FFE76A
:1021300002984068B0F5827F01D1FFE703E0029981
:102140000020C861FFE705E00299002008610299BC
:102150004861FFE7029900208862029890F85100D8
:1021600040B9FFE70299002081F85000029800F082
:102170004DF8FFE70299022081F8510002980168AA
:10218000086820F040000860029A019211685068C7
:10219000D2F808C0D36800F482700CF4044C604498
:1021A00003F400631844136903F0020318445369ED
:1021B00003F001031844936903F400731844D369CE
:1021C00003F038031844136A03F080031843926A3B
:1021D00002F40052104308600299488B00F004009A
:1021E0000968486002980168C86920F40060C86105
:1021F000029900204865029A012182F851108DF859
:102200000F00FFE79DF80F0004B080BD80B58AB0D5
:1022100009900020089007900690059009980068A2
:1022200043F20001C4F20101884237D1FFE7FFE722
:1022300041F21800C4F20200016841F480510160CB
:10224000006800F4805004900498FFE7FFE741F233
:102250001800C4F20200016841F004010160006846
:1022600000F0040003900398FFE7A02005900220EF
:1022700006900320089040F60000C4F2010001908F
:1022800005A90291FEF780FE01980299402205926D
:10229000002206920792FEF777FEFFE70AB080BDA4
:1022A00081B0009001B0704781B0009001B07047DC
:1022B00080B582B00090009820B9FFE701208DF82A
:1022C00007003FE0009890F83D0040B9FFE7009913
:1022D000002081F83C00009800F038F8FFE70099F2
:1022E000022081F83D00009951F8040B01F034FE02
:1022F0000099012081F84600FFE70099012081F84C
:102300003E00009981F83F00009981F84000009953
:1023100081F84100FFE7FFE70099012081F84200C2
:10232000009981F84300009981F84400009981F8F0
:102330004500FFE70099012081F83D0000208DF85D
:102340000700FFE79DF8070002B080BD81B0009054
:1023500001B0704783B00190019890F83D000128CA
:1023600004D0FFE701208DF80B0047E0019902201F
:1023700081F83D0001980168C86840F00100C8601C
:102380000198006842F60041C4F20101884218D069
:10239000FFE701980068B0F1804F12D0FFE7019885
:1023A000006840F20041C4F20001884209D0FFE712
:1023B0000198006840F60001C4F20001884212D181
:1023C000FFE701980068806800F00700009000981F
:1023D000062807D0FFE701980168086840F001006F
:1023E0000860FFE706E001980168086840F0010016
:1023F0000860FFE700208DF80B00FFE79DF80B0059
:1024000003B0704781B0009001B0704780B582B0D2
:10241000019001980068006900F002010020B0EB13
:10242000510F28D0FFE701980068C06800F0020152
:102430000020B0EB510F1DD0FFE7019801686FF04D
:1024400002000861019901200877019800688069FD
:10245000800720B1FFE70198FFF7D4FF06E001985D
:1024600000F012F9019800F013F9FFE7019900203C
:102470000877FFE7FFE701980068006900F00401B2
:102480000020B0EB910F29D0FFE701980068C068E9
:1024900000F004010020B0EB910F1ED0FFE701987F
:1024A00001686FF004000861019902200877019823
:1024B0000068806910F4407F04D0FFE70198FFF7BF
:1024C000A1FF06E0019800F0DFF8019800F0E0F8C5
:1024D000FFE7019900200877FFE7FFE70198006810
:1024E000006900F008010020B0EBD10F28D0FFE711
:1024F00001980068C06800F008010020B0EBD10F1F
:102500001DD0FFE7019801686FF00800086101998C
:102510000420087701980068C069800720B1FFE7B0
:102520000198FFF76FFF06E0019800F0ADF8019801
:1025300000F0AEF8FFE7019900200877FFE7FFE71A
:1025400001980068006900F010010020B0EB111F35
:1025500029D0FFE701980068C06800F01001002052
:10256000B0EB111F1ED0FFE7019801686FF010005B
:10257000086101990820087701980068C06910F483
:10258000407F04D0FFE70198FFF73CFF06E0019889
:1025900000F07AF8019800F07BF8FFE7019900203D
:1025A0000877FFE7FFE7019800680069C00780B17E
:1025B000FFE701980068C068C00748B1FFE70198CD
:1025C00001686FF001000861019800F065F8FFE70D
:1025D000FFE7019800680069C1B20020B0EBD11F8D
:1025E00013D0FFE701980068C068C1B20020B0EBCB
:1025F000D11F09D0FFE7019801686FF080000861E2
:102600000198FFF74DFEFFE7FFE7019800680069BA
:1026100000F040010020B0EB911F14D0FFE70198BB
:102620000068C06800F040010020B0EB911F09D0A5
:10263000FFE7019801686FF040000861019800F021
:102640003DF8FFE7FFE701980068006900F020010E
:102650000020B0EB511F14D0FFE701980068C0685C
:1026600000F020010020B0EB511F09D0FFE70198D6
:1026700001686FF0200008610198FFF715FEFFE781
:10268000FFE702B080BD000081B0009001B070474C
:1026900081B0009001B0704780B582B00190019880
:1026A000006840F60001C4F20001884203D1FFE750
:1026B000FEF730FEFFE702B080BD000081B0009061
:1026C00001B0704782B00190ADF8021002B07047BF
:1026D00080B584B0039000200290039800684069A0
:1026E000C0B2C0090290039890F84100212823D17C
:1026F000FFE7029800B3FFE7FFE7FFE703980068F2
:1027000050E8050F20F080000190FFE70199039841
:10271000026842E805100028F0D1FFE7FFE70398C0
:10272000806B28B1FFE70398806BFEF75FF9FFE746
:10273000039801F0C9FDFFE7039800684069C0F302
:1027400080100290039890F84200222823D1FFE7DE
:10275000029800B3FFE7FFE7FFE70398006850E83F
:10276000050F20F040000090FFE7009903980268F1
:1027700042E805100028F0D1FFE7FFE70398C06B9F
:1027800028B1FFE70398C06BFEF730F9FFE7039825
:1027900001F03CFDFFE7002004B080BD81B0009057
:1027A00001B0704780B592B0119011980068006830
:1027B000109011980068C0680F90119800684069E7
:1027C0000E9000200D900C90109800F00F000D90CE
:1027D0000D9888B9FFE79DF84000800600280AD5CB
:1027E000FFE79DF83C008006002804D5FFE711981C
:1027F00001F086FDE9E1FFE70D98002800F0C280B6
:10280000FFE79DF83800C00738B9FFE7BDF83C0086
:1028100010F4907F00F0B680FFE79DF84000C007FD
:1028200058B1FFE79DF83D00C00730B1FFE71199AF
:10283000486C40F001004864FFE79DF84000400705
:1028400000280BD5FFE79DF83800C00730B1FFE73F
:102850001199486C40F002004864FFE79DF8400081
:10286000800700280BD5FFE79DF83800C00730B17E
:10287000FFE71199486C40F004004864FFE79DF8B9
:1028800040000007002811D5FFE79DF83C008006B6
:10289000002805D4FFE79DF83800C00730B1FFE7F6
:1028A0001199486C40F008004864FFE71198406CAB
:1028B000002866D0FFE79DF84000800600280AD572
:1028C000FFE79DF83C008006002804D5FFE711983B
:1028D00001F016FDFFE7119800684069C0F3801011
:1028E0000C901198406C0007002804D4FFE70C9866
:1028F00000283ED0FFE7119801F088FC119800688D
:102900004069400600282FD5FFE7FFE7FFE7119851
:10291000006850E8050F20F040000B90FFE70B998E
:102920001198026842E805100028F0D1FFE7FFE7A0
:102930001198C06B98B1FFE71198C16B44F2490040
:10294000C0F6000048631198C06BFEF78DF828B1FF
:10295000FFE71198C06B416B8847FFE703E01198D0
:10296000FFF71CFFFFE703E01198FFF717FFFFE7F2
:1029700006E01198FFF712FF119900204864FFE765
:10298000FFE722E11198006B012840F0FE80FFE78D
:102990009DF84000C006002840F1F780FFE79DF851
:1029A0003C00C006002840F1F080FFE7FFE7002070
:1029B0000A901198006800680A90119800684068B1
:1029C0000A900A98FFE711980068406940060028BD
:1029D00040F18180FFE71198C06B00684068ADF856
:1029E0002600BDF82600002874D0FFE7BDF82600B9
:1029F0001199898D88426DDAFFE7BDF8260011999B
:102A0000C8851198C06B8069202858D0FFE7FFE780
:102A1000FFE71198006850E8030F20F480700890D9
:102A2000FFE708991198026842E803100028F0D1E6
:102A3000FFE7FFE7FFE7FFE71198006850E8050FA1
:102A400020F001000790FFE707991198026842E81B
:102A500005100028F0D1FFE7FFE7FFE7FFE7119837
:102A6000006850E8050F20F040000690FFE7069947
:102A70001198026842E805100028F0D1FFE7FFE74F
:102A80001199202081F84200119900200863FFE786
:102A9000FFE71198006850E8030F20F01000059040
:102AA000FFE705991198026842E803100028F0D169
:102AB000FFE7FFE71198C06BFDF798FFFFE711995B
:102AC000022048631198818DC28D891A89B2FFF75F
:102AD000F9FDFFE779E01199888DC98D401AADF8AD
:102AE00012001198C08D00284ED0FFE7BDF81200EB
:102AF000002849D0FFE7FFE7FFE71198006850E89A
:102B0000030F20F490700390FFE703991198026877
:102B100042E803100028F0D1FFE7FFE7FFE7FFE7F7
:102B20001198006850E8050F20F001000290FFE7BF
:102B300002991198026842E805100028F0D1FFE7D9
:102B4000FFE71199202081F84200119900200863C5
:102B5000FFE7FFE71198006850E8030F20F010002E
:102B60000190FFE701991198026842E803100028DC
:102B7000F0D1FFE7FFE71199022048631198BDF8F3
:102B80001210FFF79FFDFFE71FE09DF840000006D1
:102B900000280AD5FFE79DF83C000006002804D570
:102BA000FFE7119801F078FD0FE09DF84000400626
:102BB00000280AD5FFE79DF83C004006002804D510
:102BC000FFE7119801F06CFBFFE712B080BD000039
:102BD00080B582B00090009820B9FFE701208DF801
:102BE000070040E00098806908B1FFE700E0FFE7D8
:102BF000009890F8410040B9FFE70099002081F863
:102C00004000009800F034F8FFE70099242081F894
:102C1000410000980168C86820F40050C86000981E
:102C200001F024FC00980168086920F490400861D4
:102C300000980168486920F02A00486100980168FE
:102C4000C86840F40050C860009900204864009AA9
:102C5000202182F84110009A82F8421000994863BE
:102C60008DF80700FFE79DF8070002B080BD000067
:102C700080B596B01590002014901390129011908A
:102C80001598006843F60001C4F20101884240F043
:102C90008B80FFE7FFE741F21800C4F202000168F1
:102CA00041F480410160006800F480401090109869
:102CB000FFE7FFE741F21800C4F20200016841F0AB
:102CC00004010160006800F004000F900F98FFE716
:102CD0004FF400701190022012900320149040F6DF
:102CE0000000C4F20100099011A90A91FEF74CF905
:102CF00009980A994FF48062119200220B92129265
:102D00001392FEF741F90B9940F25010C2F2000005
:102D10000C905822C4F2020202604160816080225D
:102D2000C260016141618161C161FEF76FF818B154
:102D3000FFE7FDF731FCFFE7FFE7159840F2501180
:102D4000C2F20001C16315984862FFE740F2941097
:102D5000C2F2000008904421C4F202010160102177
:102D60004160002181608022C26001614161816116
:102D7000C161FEF74BF818B1FFE7FDF70DFCFFE767
:102D8000FFE7159840F29411C2F200018163159893
:102D90004862FFE72520079005210022FEF798FBF7
:102DA0000798FEF78BFB92E01598006844F200410B
:102DB000C4F20001884240F08980FFE7FFE741F25A
:102DC0001C00C4F20200016841F400310160006897
:102DD00000F400300E900E98FFE7FFE741F2180074
:102DE000C4F20200016841F004010160006800F0D3
:102DF00004000D900D98FFE704201190022012901E
:102E00000320149040F60000C4F20100039011A9C1
:102E10000491FEF7B9F80398049908221192002250
:102E2000059212921392FEF7AFF8059940F2D8106E
:102E3000C2F2000006906C22C4F2020202604160FD
:102E400081608022C260016141618161C161FDF7E1
:102E5000DDFF18B1FFE7FDF79FFBFFE7FFE71598E0
:102E600040F2D811C2F20001C16315984862FFE731
:102E700040F21C20C2F2000002908021C4F2020144
:102E8000016010214160002181608022C2600161E7
:102E900041618161C161FDF7B9FF18B1FFE7FDF73D
:102EA0007BFBFFE7FFE7159840F21C21C2F200010F
:102EB000816315984862FFE72620019005210022D2
:102EC000FEF706FB0198FEF7F9FAFFE7FFE716B0F9
:102ED00080BD000080B584B002900191ADF8022061
:102EE000029890F84200202817D1FFE7019820B1FE
:102EF000FFE7BDF8020020B9FFE701208DF80F00C1
:102F00000FE002990020086302980199BDF80220A1
:102F100001F00AFB8DF80F0003E002208DF80F008E
:102F2000FFE79DF80F0004B080BD000080B584B0BD
:102F300002900191ADF80220029890F842002028FA
:102F400017D1FFE7019820B1FFE7BDF8020020B9D3
:102F5000FFE701208DF80F000FE0029900200863C1
:102F600002980199BDF8022001F064FB8DF80F0072
:102F700003E002208DF80F00FFE79DF80F0004B07A
:102F800080BD000081B0009001B0704781B000901A
:102F900001B0704781B0009001B07047FFE7FEE7D5
:102FA00080B582B08DF806009DF80600412826D134
:102FB000FFE708210846FDF725FA11203D2101F021
:102FC000C9FB1720862101F0C5FB26207F2101F0D7
:102FD000C1FB2D201E2101F0BDFB2C20002101F0A2
:102FE000B9FB2A208D2101F0B5FB2B203E2101F0F9
:102FF000B1FB012001F05CFD00F040FA03E0FF208E
:103000008DF8070003E000208DF80700FFE79DF82A
:10301000070002B080BD000080B584B0002103919C
:103020000291019140F22010C2F20000009042F2A1
:103030000042C4F2010202608160017301754FF425
:103040006022C261416001210161FDF787FB18B177
:10305000FFE7FDF7A1FAFFE70420019001200290AD
:103060000020039040F22010C2F2000001A9FDF7F9
:103070009BFA18B1FFE7FDF78FFAFFE704B080BDB8
:1030800080B588B0FFE741F21400C4F20200016885
:1030900041F001010160006800F00100079007980D
:1030A000FFE70E2001900521049100220592FEF712
:1030B0000FFA0198FEF702FA0499059A0F20029080
:1030C000FEF706FA0298FEF7F9F90499059A10201E
:1030D0000390FEF7FDF90398FEF7F0F90499059ABD
:1030E00011200690FEF7F4F90698FEF7E7F908B00C
:1030F00080BD000010B588B046F23420C0F6000054
:10310000016842688368D0F80CC0D0F810E04469C8
:103110000694CDF814E0CDF810C00393029201910B
:103120008069079001A8002101F02AFD40F21C11DE
:10313000C2F20001086008B010BD000080B58EB07A
:1031400000200D900C900B900A90FFE741F21800C0
:10315000C4F20200016841F020010160006800F043
:10316000200009900998FFE7FFE741F21800C4F238
:103170000200016841F004010160006800F00400F1
:1031800008900898FFE7FFE741F21800C4F2020038
:10319000016841F008010160006800F00800079034
:1031A0000798FFE740F60040C4F2010000904BF2A0
:1031B000050100220292FEF78FF8029A40F6000005
:1031C000C4F2010004904FF480710691FEF784F878
:1031D0000098012101910A910B91022103910C9118
:1031E0000D910AA90591FDF7CFFE0098019A029B67
:1031F000DDF80CC00599CDF828C00B930C92FDF7B3
:10320000C3FE0098DDF804C0029B039A05994BF2B7
:10321000040ECDF828E0CDF82CC00C930D92FDF7EC
:10322000B3FE0098029A05994FF480430A930B92DB
:103230000C92FDF7A9FEDDF804C0029B039A0498E6
:103240000599DDF818E0CDF828E0CDF82CC00C93F6
:103250000D92FDF799FE0EB080BD000080B582B0E2
:1032600040F26020C2F20000019043F20001C4F27B
:10327000010101604FF48271416000218160C160F1
:10328000016141614FF4007282610822C2610162F2
:10329000416281620A21C162FEF73CFF18B1FFE77B
:1032A000FDF77AF9FFE702B080BD000080B582B07B
:1032B00040F20030C2F20000019043F60001C4F277
:1032C000010101604FF4E131416000218160C16082
:1032D00001610C2242618161C161FFF779FC18B183
:1032E000FFE7FDF759F9FFE702B080BD80B582B076
:1032F00040F24830C2F20000019044F20041C4F2B2
:10330000000101604FF41651416000218160C160ED
:1033100001610C2242618161C161FFF759FC18B162
:10332000FFE7FDF739F9FFE702B080BDFFE7FEE7F1
:10333000FFE7FEE788B0079006910592079800F036
:10334000070004900498C0F10700052803D3FFE7A5
:103350000420019004E00498C0F107000190FFE709
:103360000198039004980430062803D8FFE7002052
:10337000009003E0049803380090FFE70098029063
:1033800006980399012202FA01F101390840029BD3
:10339000984005999A40013A1140084308B0704797
:1033A00080B582B040F20C11C2F20001522000F050
:1033B00087FA20B1FFE74FF0FF30019054E040F270
:1033C0001010C2F2000000F06DF820B1FFE74FF0DE
:1033D000FF30019048E040F21010C2F2000000F00F
:1033E000F1FA20B1FFE74FF0FF3001903CE040F2EE
:1033F0001010C2F20000043000F0B4F820B1FFE772
:103400004FF0FF3001902FE040F21010C2F20000A8
:10341000043000F02DFB20B1FFE74FF0FF300190AA
:1034200022E040F2A431C2F2000101200870022023
:10343000487006204871072000F070FB20B1FFE7BC
:103440004FF0FF3001900FE040F29431C2F20001E2
:10345000062000F0EFF920B1FFE74FF0FF300190B8
:1034600002E000200190FFE7019802B080BD00005B
:1034700080B514200321FCF7C5FF80BD80B582B064
:10348000142000F011FC8DF807009DF8070080075C
:1034900028B9FFE71420032100F0BCFCFFE702B0CD
:1034A00080BD000080B58AB00990002001908DF8A1
:1034B000210008210846FCF7A5FF01990D2001F025
:1034C00049F90E208021FCF79DFF93208DF80A001A
:1034D00020208DF80B00694607A808600C20022206
:1034E0000DF10A03194600F09DF88DF823009DF8B0
:1034F000230070BBFFE700208DF82200FFE79DF856
:103500002200032816DCFFE79DF822300DF10A00A7
:10351000C15C099AD1549DF82210415C9DF82100AC
:1035200048408DF82100FFE79DF8220001308DF81A
:103530002200E4E79DF821009DF822200DF10A0108
:10354000895C884204D0FFE7FE208DF82300FFE766
:10355000FFE70E20802100F05DFC9DF823000AB0FB
:1035600080BD000080B58AB00990002001908DF8E0
:10357000210008210846FCF745FF01990D2001F0C4
:10358000E9F80E208021FCF73DFF95208DF80A0018
:1035900020208DF80B00694607A808600C20022245
:1035A0000DF10A03194600F03DF88DF823009DF84F
:1035B000230070BBFFE700208DF82200FFE79DF895
:1035C0002200032816DCFFE79DF822300DF10A00E7
:1035D000C15C099AD1549DF82210415C9DF82100EC
:1035E00048408DF82100FFE79DF8220001308DF85A
:1035F0002200E4E79DF821009DF822200DF10A0148
:10360000895C884204D0FFE7FE208DF82300FFE7A5
:10361000FFE70E20802100F0FDFB9DF823000AB09B
:1036200080BD000080B58CB0DDF838C08DF82F006B
:103630000A918DF827200893FE208DF81F000020A6
:103640008DF81E008DF81D009DF82F000146049195
:103650000C280BD0FFE704980E280ED1FFE71220AC
:103660008DF81E0010208DF81D0007E077208DF8E2
:103670001E0030208DF81D0000E0FFE79DF81E00C1
:1036800040F08001022001F065F8042080210291C1
:10369000FCF7B8FE01200021039101F05BF80299CC
:1036A0000A2000F0B7FB03980590FFE705989DF806
:1036B000271088420BD2FFE70A980599415C092040
:1036C00001F048F8FFE7059801300590EEE79DF816
:1036D0002F10012001F03EF89DF82F000C2805D195
:1036E000FFE70D20802100F095FBFFE74FF4FA6023
:1036F0000590FFE7042000F0D7FA8DF81B0005982D
:1037000001380590FFE705990020019089B1FFE796
:103710009DF81B100020C907019051B9FFE79DF8E3
:103720001B009DF81D100840B0FA80F04009019080
:10373000FFE70198C0070028DCD1FFE70D208021BA
:10374000FCF760FE0598002867D0FFE7062000F030
:10375000ABFA10F01B0F5BD1FFE700208DF81F00C4
:103760009DF81B009DF81E100840C00720B1FFE720
:10377000FF208DF81F00FFE79DF82F000C2846D191
:10378000FFE70A2000F090FA8DF81B000C2000F0F3
:103790008BFA00F007008DF81C009DF81C0050B15A
:1037A000FFE79DF81B109DF81C0000EBC1000838D6
:1037B0000E99086005E09DF81B00C0000E99086096
:1037C000FFE79DF81B0020B9FFE701208DF81B00E3
:1037D000FFE79DF81B00132804DBFFE712208DF89C
:1037E0001B00FFE700200590FFE705989DF81B10E0
:1037F00088420BD2FFE7092000F056FA0899059A93
:103800008854FFE7059801300590EEE7FFE703E0F5
:10381000FE208DF81F00FFE7FFE70C20802100F05D
:10382000F9FA0120002100F095FF9DF81F000CB06F
:1038300080BD000080B58CB08DF82F000A9130203B
:103840008DF80D009DF82F008DF80E000DF10D0084
:103850000290821C0221FCF775FD029B694608A8B4
:1038600008600C2004221946FFF7DCFE8DF82700C3
:103870009DF82700E0B9FFE70898902818D1FFE7E6
:1038800000208DF81F00FFE79DF81F000F280EDCB9
:10389000FFE79DF81F200DF10D00805C0A99885408
:1038A000FFE79DF81F0001308DF81F00ECE703E0F3
:1038B000FE208DF82700FFE79DF827000CB080BDA3
:1038C00080B58AB08DF82700089108210846FCF7DA
:1038D00099FD0D20072100F03DFF1420032100F089
:1038E00099FA9DF827008DF80600694606A8086039
:1038F0000C2001220DF106031946FFF793FE8DF807
:103900001F009DF81F0068B9FFE70698102809D12D
:10391000FFE79DF80600089908709DF807000899D0
:10392000487003E0FE208DF81F00FFE79DF81F00A0
:103930000AB080BD80B584B040F60000C4F201003A
:1039400001904FF48071029101220392FDF7C4FCB3
:10395000039801F0ADF8019802990022FDF7BCFC34
:10396000039801F0A5F801980299039AFDF7B4FCB9
:103970000A2001F09DF8022000F096F9802801D17C
:10398000FFE7FFE701200F2100F0E4FE11203D21B9
:1039900000F0E0FE2D201E2100F0DCFE2C20002196
:1039A000009100F0D7FE2A208D2100F0D3FE2B20BD
:1039B0003E2100F0CFFE1520402100F0CBFE009804
:1039C00004B080BD80B58AB0099093208DF80A00BC
:1039D00070208DF80B0000208DF810008DF822006B
:1039E000FFE79DF82200032818DCFFE709989DF8FF
:1039F0002210405C0DF10A021144887009989DF86C
:103A00002210415C9DF8100048408DF81000FFE73F
:103A10009DF8220001308DF82200E2E70DF10A0046
:103A20000190C21D0721FCF78DFC08210846FCF718
:103A3000E9FC019B694607A808600C200922194689
:103A4000FFF7F0FD8DF823009DF8230040B9FFE754
:103A50000798182804D1FFE700208DF8230003E021
:103A6000FE208DF82300FFE79DF823000AB080BDFB
:103A700080B58AB0099095208DF80A0070208DF8E5
:103A80000B0000208DF810008DF82200FFE79DF854
:103A90002200032818DCFFE709989DF82210405CFB
:103AA0000DF10A021144887009989DF82210415CBA
:103AB0009DF8100048408DF81000FFE79DF82200A7
:103AC00001308DF82200E2E70DF10A000190C21DDD
:103AD0000721FCF737FC08210846FCF793FC019B03
:103AE000694607A808600C2009221946FFF79AFDCD
:103AF0008DF823009DF8230040B9FFE707981828A8
:103B000004D1FFE700208DF8230003E0FE208DF8AC
:103B10002300FFE79DF823000AB080BD80B58CB07C
:103B20008DF82F000A91A0208DF80D009DF82F0030
:103B30008DF80E000DF10D000290821C0221FCF7A1
:103B400001FC029B694608A808600C200422194663
:103B5000FFF768FD8DF827009DF8270058B9FFE7AB
:103B60000898042807D1FFE79DF80D0000F00F002A
:103B70000A2804D0FFE7FE208DF82700FFE79DF814
:103B8000270000283ED1FFE700208DF81F00FFE747
:103B90009DF81F000F280EDCFFE70A989DF81F20F4
:103BA000805C0DF10D018854FFE79DF81F00013086
:103BB0008DF81F00ECE70DF10D00019000F11002EF
:103BC0001021FCF7BFFB019B694608A808600C2088
:103BD00012221946FFF726FD8DF827009DF82700D1
:103BE00058B9FFE70898042807D1FFE79DF80D00B2
:103BF00000F00F000A2804D0FFE7FE208DF8270010
:103C0000FFE7FFE79DF827000CB080BD0000000033
:103C1000EFF30980BFF36F8F0D4B1A6820E9F00FA7
:103C200010602DE908404FF0500080F3118801F03A
:103C3000D5FF4FF0000080F31188BDE808401968F7
:103C40000868B0E8F00F80F30988BFF36F8F704702
:103C5000B403002082B00190019840F20001C2F24A
:103C600000010968C90844F6D352C1F26202A1FBFF
:103C70000221890948430090FFE700BFFFE7009851
:103C8000411E00910028F8D1FFE702B07047000004
:103C900080B5FFF74FFEFFF7EBFBFFF7EFFB41208F
:103CA000FFF77EF980BD000080B586B08DF8170063
:103CB00000228DF8142040F60040C4F201004FF4B9
:103CC0008051FDF709FB9DF81710802040EA410064
:103CD0008DF8150008208DF81600FFE79DF81600F6
:103CE000012838DBFFE740F60040C4F201004FF442
:103CF00000510022FDF7F0FA9DF81500000600289B
:103D00000AD5FFE740F60040C4F201004FF400413D
:103D10000122FDF7E1FA09E040F60040C4F201009B
:103D20004FF400410022FDF7D7FAFFE740F60040CC
:103D3000C4F201004FF400510122FDF7CDFA9DF8C5
:103D4000150040008DF81500FFE79DF816000138BA
:103D50008DF81600C2E708208DF81600FFE79DF8E1
:103D6000160001282BDBFFE740F60040C4F20100FB
:103D700004904FF4005103910022FDF7ADFA03992E
:103D800004989DF8142052008DF814200122FDF7AC
:103D9000A3FA04984FF48041FDF786FA012807D171
:103DA000FFE79DF8140040F001008DF81400FFE7D4
:103DB000FFE79DF8160001388DF81600CFE740F6B2
:103DC0000040C4F2010001904FF4805101220292A0
:103DD000FDF782FA0198029A4FF40051FDF77CFA40
:103DE0009DF8140006B080BD000000000000000037
:103DF000074B19680868B0E8F00F80F30988BFF333
:103E00006F8F4FF0000080F311884EF00D0E704759
:103E1000B403002080B582B08DF807008DF806103D
:103E200000208DF805009DF80700FFF73DFF8DF895
:103E300005009DF807009DF805109DF80620114328
:103E400000F088FC02B080BD80B582B0019000F027
:103E50000DF840F21C10C2F20000006800F0E6FE0F
:103E6000FFE7012000F072FEFBE7000080B500F0E4
:103E7000B3FD00F0B9FD80BD80B582B04FF05000B9
:103E800080F31188BFF36F8FBFF34F8F009002F064
:103E900039F840B1FFE74EF60451CEF200014FF081
:103EA00080500860FFE700200190019880F311889E
:103EB00002B080BD80B596B00CA801902821FCF717
:103EC00099F90198002302930B930A93099308939D
:103ED0000793069305930493039301220C924FF4E6
:103EE00080310D910E9310920222139214914FF48F
:103EF000E0111591FDF7D0FD18B1FFE7FCF74CFB81
:103F0000FFE70F20079002210891002009904FF44D
:103F100080620A920B9007A8FDF7E0FB18B1FFE75B
:103F2000FCF73AFBFFE7022003904FF400400590B6
:103F300003A8FDF7EFFA18B1FFE7FCF72DFBFFE749
:103F400016B080BD7047000080B540F2B820C2F2C4
:103F50000000FEF75BFA80BD83B0029001910298E9
:103F600000680090029842F60041C4F201018842C4
:103F700015D0FFE70298B0F1804F10D0FFE702980C
:103F800040F20041C4F20001884208D0FFE70298E5
:103F900040F60001C4F2000188420AD1FFE7009810
:103FA00020F070000090019841680098084300904C
:103FB000FFE7029842F60041C4F20101884215D0A1
:103FC000FFE70298B0F1804F10D0FFE7029840F26F
:103FD0000041C4F20001884208D0FFE7029840F691
:103FE0000001C4F2000188420AD1FFE7009820F4E2
:103FF000407000900198C168009808430090FFE766
:10400000009820F0800001994969084300900098C9
:1040100002990860019880680299C8620198006856
:1040200002998862029842F60041C4F20101884276
:1040300005D1FFE70198006902990863FFE702993B
:104040000120486103B0704780B582B001900198AB
:10405000406A009000990020C8850099C8840098A3
:10406000FEF79CFB02B080BD80B584B003900020B9
:1040700002900398406A0190019800684069C0B2BC
:10408000C0090290019890F8410021280AD1FFE769
:10409000029838B1FFE701990020C884019800F028
:1040A00013F9FFE7019800684069C0F3801002909F
:1040B000019890F8420022280AD1FFE7029838B10F
:1040C000FFE701990020C885019800F09FF8FFE7FD
:1040D0000199486C40F0100048640198FEF75EFBBF
:1040E00004B080BD80B586B005900598406A049004
:1040F000059800680068800600285AD4FFE70499F4
:104100000020C885FFE7FFE70498006850E8030F28
:1041100020F480700390FFE703990498026842E856
:1041200003100028F0D1FFE7FFE7FFE7FFE704985F
:10413000006850E8050F20F001000290FFE70299A7
:104140000498026842E805100028F0D1FFE7FFE775
:10415000FFE7FFE70498006850E8050F20F04000F3
:104160000190FFE701990498026842E805100028D1
:10417000F0D1FFE7FFE70499202081F8420004987E
:10418000006B012814D1FFE7FFE7FFE70498006800
:1041900050E8030F20F010000090FFE7009904980A
:1041A000026842E803100028F0D1FFE7FFE7FFE7CD
:1041B000FFE70499002048630498006B012805D1AB
:1041C000FFE70498818DFEF77DFA03E00498FEF77F
:1041D000D9FEFFE706B080BD80B582B0019001989E
:1041E000406A00900099012048630098006B012804
:1041F00006D1FFE70098818D4908FEF763FA03E0D6
:104200000098FEF7C3FEFFE702B080BD84B00390C4
:10421000FFE7FFE70398006850E8030F20F4907071
:104220000290FFE702990398026842E80310002811
:10423000F0D1FFE7FFE7FFE7FFE70398006850E8EA
:10424000050F20F001000190FFE701990398026833
:1042500042E805100028F0D1FFE7FFE70398006B64
:10426000012814D1FFE7FFE7FFE70398006850E853
:10427000030F20F010000090FFE7009903980268F8
:1042800042E803100028F0D1FFE7FFE7FFE70399BA
:10429000202081F8420003990020086304B0704791
:1042A00080B582B0019001980168C86820F0400094
:1042B000C8600199202081F841000198FEF76AFE4C
:1042C000002002B080BD000082B00190FFE7FFE750
:1042D0000198006850E8030F20F0C0000090FFE74D
:1042E00000990198026842E803100028F0D1FFE726
:1042F000FFE70199202081F8410002B070470000DB
:1043000080B586B00490049890F84200222840F0CE
:10431000A480FFE704988068B0F5805F15D1FFE7BF
:104320000498006988B9FFE7002003900498806A28
:1043300002900498006840686FF35F20029908803B
:104340000499886A0230886225E00498806A0390A4
:104350000020029004988068B0F5805F08D0FFE7E5
:104360000498806850B9FFE70498006930B9FFE706
:104370000498006840680399087007E00498006892
:10438000406800F07F0003990870FFE70499886A8D
:1043900001308862FFE70499C88D0138C8850004A0
:1043A000002856D1FFE704980168C86820F0200073
:1043B000C86004980168C86820F48070C8600498D8
:1043C0000168486920F0010048610499202081F8C3
:1043D00042000499002048630498006B012830D102
:1043E000FFE7049900200863FFE7FFE704980068EF
:1043F00050E8030F20F010000190FFE701990498A6
:10440000026842E803100028F0D1FFE7FFE70498B4
:1044100000680068C00600280ED5FFE7FFE700200F
:104420000090049800680068009004980068406854
:1044300000900098FFE7FFE70498818DFEF742F9AE
:1044400003E00498FEF79EFDFFE700208DF81700BB
:1044500007E000208DF8170003E002208DF8170018
:10446000FFE79DF8170006B080BD000080B584B05E
:10447000039003980068006920F44050039A116883
:10448000D26810430861039988680A694969104332
:104490000843029003980068C06841F20C618843A9
:1044A0000299084303990968C86003980068406945
:1044B00020F44070039A1168926910434861039890
:1044C000006843F60001C4F20101884204D1FFE70D
:1044D000FDF772FA019003E0FDF75CFA0190FFE747
:1044E000019819214843039A116852689200B0FB61
:1044F000F2FC48F21F52C5F2EB12ACFB023043094A
:10450000642003FB10CC322000EB0C10A0FB020255
:10451000F02000EA521000EB0310C2F343121044E3
:10452000886004B080BD000080B588B00790069117
:10453000ADF81620069807998862BDF8160007990D
:104540008885079900204864079A222182F8421042
:104550000799CA6B44F2E501C0F600019162079920
:10456000CA6B44F2D911C0F60001D1620799CA6B37
:1045700044F26901C0F6000111630799C96B4863F1
:1045800006A8049007980168C06B0431049A126869
:10459000BDF81630FCF792FCFFE700200390079867
:1045A00000680068039007980068406803900398CB
:1045B000FFE707980069A0B1FFE7FFE7FFE707986B
:1045C000006850E8030F40F480700290FFE7029902
:1045D0000798026842E803100028F0D1FFE7FFE7E0
:1045E000FFE7FFE7FFE70798006850E8050F40F096
:1045F00001000190FFE701990798026842E8051061
:104600000028F0D1FFE7FFE7FFE7FFE70798006822
:1046100050E8050F40F040000090FFE70099079830
:10462000026842E805100028F0D1FFE7FFE700200C
:1046300008B080BD83B002900191ADF802200198CE
:1046400002998862BDF8020002998885BDF80200CF
:104650000299C8850299002048640299222081F8B5
:1046600042000298006938B1FFE702980168C86803
:1046700040F48070C860FFE702980168486940F024
:104680000100486102980168C86840F02000C860D5
:10469000002003B07047000083B00190019890F8AB
:1046A000410021283AD1FFE701988068B0F5805F8A
:1046B00013D1FFE70198006978B9FFE70198006A14
:1046C0000090009800886FF35F20019909684860A6
:1046D0000199086A0230086208E0019A106A411CD8
:1046E00011620078019909684860FFE70199C88C58
:1046F0000138C884000468B9FFE701980168C868F8
:1047000020F08000C86001980168C86840F040004F
:10471000C860FFE700208DF80B0003E002208DF851
:104720000B00FFE79DF80B0003B0704780B540F227
:104730000030C2F20000FEF735F880BD80B540F2CF
:104740004830C2F20000FEF72DF8FBF775FE80BD81
:10475000FFE7FEE780B58AB08DF827008DF82610B8
:1047600040F60040C4F2010007904FF400510022CF
:104770000892FCF7B1FD0798089A4FF48051FCF7B6
:10478000ABFD9DF827107E2000EA41008DF8240043
:1047900008208DF82500FFE79DF82500012836DB6D
:1047A000FFE79DF82400000600280AD5FFE740F641
:1047B0000040C4F201004FF400410122FCF78CFDDF
:1047C00009E040F60040C4F201004FF4004100222D
:1047D000FCF782FDFFE740F60040C4F201000590BF
:1047E0004FF4005106910122FCF776FD05980699D9
:1047F0009DF8242052008DF824200022FCF76CFD47
:10480000FFE79DF8250001388DF82500C4E7082052
:104810008DF82500FFE79DF82500012836DBFFE72E
:104820009DF82600000600280AD5FFE740F6004064
:10483000C4F201004FF400410122FCF74DFD09E0F4
:1048400040F60040C4F201004FF400410022FCF7A2
:1048500043FDFFE740F60040C4F2010003904FF42F
:10486000005104910122FCF737FD039804999DF84B
:10487000262052008DF826200022FCF72DFDFFE7B0
:104880009DF8250001388DF82500C4E740F600406A
:10489000C4F2010001904FF4805101220292FCF712
:1048A0001BFD0198029A4FF40051FCF715FD0AB068
:1048B00080BD000080B582B0019001F019FB00902E
:1048C000FFE768460A2100F0EFFFFEF769FD08B92F
:1048D000FFE7FFE7F5E7000080B582B0019001F047
:1048E00007FB0090FFE768464FF47A7100F0DCFFA9
:1048F000F9E7000080B586B040F21810C2F200005F
:104900006946486004200590086044F6BD10C0F672
:10491000000046F28B21C0F6000102914FF4807234
:1049200003920023049301F02DFA0299039A049B49
:10493000059840F2081EC2F2000EEC46CCF804E0E6
:10494000CCF8000044F6B500C0F6000001F01AFAF9
:104950000299049B059841F2740CC2F2000C6A465D
:10496000C2F804C0106044F6D900C0F600008022EE
:1049700001F008FA0299039A049B059840F2903ED0
:10498000C2F2000EEC46CCF804E0CCF8000044F68D
:10499000A110C0F6000001F0F5F906B080BD0000DE
:1049A00080B582B0019001F0A3FA0090FFE768465D
:1049B0004FF47A7100F078FFF9E7000080B586B017
:1049C000059001F095FA0490FFE704A84FF47A717E
:1049D00000F06AFFF9E7000080B5FBF767FDFBF721
:1049E000C5FDFFF755F980BD80B5FFF783FF80BD9A
:1049F00081B08DF803009DF9030000280ED4FFE775
:104A00009DF9031001F01F02012090404A094EF267
:104A10000011CEF2000141F82200FFE701B070471B
:104A20004EF60C50CEF200000068C0F30220704732
:104A300082B08DF8070000919DF9070000280AD484
:104A4000FFE7009800019DF907104EF20042CEF2F8
:104A5000000288540BE0009800019DF8071001F057
:104A60000F014EF61452CEF200028854FFE702B056
:104A70007047000083B00290029800F00700009099
:104A80004EF60C51CEF200010868019001984FF6E5
:104A9000FF02104001900198009A40EA0220002293
:104AA000C0F2FA52104301900198086003B07047B9
:104AB00083B0029000200190FFE70198029988429C
:104AC00013D2FFE700200090FFE700984EF65F2129
:104AD000884205D8FFE7FFE7009801300090F4E72F
:104AE000FFE7019801300190E7E703B0704700004D
:104AF00080B582B000200190FCF71AFCFFF7DAF9CC
:104B0000FEF71CFBFEF7BCFAFEF7A8FBFEF7CEFB98
:104B1000FEF7ECFBFEF780FAFEF7ECFA00F02AF85D
:104B2000FFE7FEE782B0ADF8060000200090BDF977
:104B30000600842807D0FFE7BDF906000099084465
:104B400003300090FFE7009802B0704780B584B052
:104B5000039003980290029818B1FFE70298019021
:104B600002E001200190FFE7019800F065FE0020BF
:104B700004B080BD80B500F0C1FF002080BD000002
:104B8000B0B590B00E900D910E98406938B3FFE724
:104B90000E98806918B3FFE70E9801680891416884
:104BA0000B91016909910D990A91B0F90800FFF77D
:104BB000B9FF0899099A0A9B84460B98DDF838E0FA
:104BC000DEF81440DEF81850EE46CEF80850CEF865
:104BD0000440CEF800C001F025F90C9020E00E98BA
:104BE0000168049141680791018A05910D99069128
:104BF000B0F90800FFF796FF0499059A069B8446D2
:104C00000798EE460CACCEF80440CEF800C001F098
:104C1000B9F8012803D0FFE700200F9003E0FFE779
:104C20000C980F90FFE70F9810B0B0BD80B582B020
:104C30000190019800F0C2FE002002B080BD00008B
:104C400080B584B00390029141F25430C2F200006A
:104C50000068009040F2B430C2F2000000680430F6
:104C600000F068FC88B9FFE740F2B430C2F20000FF
:104C70000068C16A012000FA01F241F27001C2F23B
:104C8000000108689043086000E0FFE703980130E6
:104C900080B9FFE7029868B1FFE740F2B430C2F292
:104CA00000000068011D41F22C30C2F2000000F04B
:104CB000D1FC3DE00098039908440190019840F22E
:104CC000B431C2F200010968486001980099884235
:104CD0000ED2FFE740F2C030C2F20000006840F29E
:104CE000B431C2F200010968043100F07DFC1EE01D
:104CF00040F2B830C2F20000006840F2B431C2F2B3
:104D000000010968043100F06FFC019841F20431A0
:104D1000C2F200010968884207D2FFE7019841F218
:104D20000431C2F20001086000E0FFE7FFE7FFE79F
:104D300004B080BD80B582B0019000F0A9FC41F2C2
:104D40005C01C2F2000108680130086040F2B43032
:104D5000C2F20000006898B9FFE7019840F2B43150
:104D6000C2F20001086041F25C00C2F2000000687B
:104D7000012803D1FFE700F0BFF900E0FFE71CE0E6
:104D800041F22030C2F200000068A0B9FFE740F213
:104D9000B430C2F200000068C06A0199C96A884252
:104DA00007D8FFE7019840F2B431C2F20001086071
:104DB00000E0FFE700E0FFE7FFE741F26C01C2F22D
:104DC00000010868013008600198C16A012000FAFA
:104DD00001F241F27001C2F200010868104308605C
:104DE0000199C86A00EB800240F2C430C2F20000B0
:104DF00000EB8200043100F02DFC00F075FC41F264
:104E00002030C2F200000068C8B1FFE740F2B430C1
:104E1000C2F200000068C06A0199C96A88420CD2D7
:104E2000FFE74EF60451CEF200014FF080500860CB
:104E3000BFF34F8FBFF36F8F00E0FFE700E0FFE7A6
:104E400002B080BD80B582B0FFE741F26000C2F2DF
:104E50000000006808B3FFE700F01AFC41F24030A0
:104E6000C2F20000C068C06801900198043000F0F0
:104E700061FB41F25C01C2F2000108680138086080
:104E800041F26001C2F2000108680138086000F0D8
:104E90002BFC019800F004F8D7E702B080BD0000B9
:104EA00080B582B00090009890F8510040B9FFE7BB
:104EB0000098006B00F03EFC009800F03BFC1CE00A
:104EC000009890F85100012804D1FFE7009800F005
:104ED00031FC11E0009890F8510002280BD0FFE758
:104EE0004FF0500080F31188BFF36F8FBFF34F8FE7
:104EF0000190FFE7FEE7FFE7FFE702B080BD00009B
:104F000084B04FF44060009040F25040C2F2000084
:104F100001909DF80400400788B1FFE70198073031
:104F20000190019820F007000190019A40F2504151
:104F3000C2F200010098891A08440090FFE7019826
:104F40000290029941F22430C2F200000160002177
:104F500041600298009A104401900198083801902D
:104F6000019820F007000190019A40F2BC30C2F293
:104F700000000260026851600268116002990391AA
:104F80000199039A891A516000680399086003988F
:104F9000406841F20031C2F20001086003984068A5
:104FA00041F2A401C2F20001086041F27801C2F2AC
:104FB00000014FF00040086004B0704780B582B037
:104FC0000190FFE7FFF73EFF40F2C430C2F200005D
:104FD000006802280CD3FFE74EF60451CEF2000120
:104FE0004FF080500860BFF34F8FBFF36F8F00E02A
:104FF000FFE7E7E780B588B0DDF834C0DDF830C002
:10500000DDF82CC0DDF828C00690059104920393CA
:105010000C98006B049900EB810004380290029810
:1050200020F0070002909DF80800400758B1FFE704
:105030004FF0500080F31188BFF36F8FBFF34F8F95
:105040000790FFE7FEE700200190FFE701980F2897
:1050500013D8FFE70598019A805C0C99114481F8F8
:10506000340005980199405C08B9FFE705E0FFE7C7
:10507000FFE7019801300190E8E70C99002081F8E2
:1050800043000A98072803D3FFE706200A9000E0B0
:10509000FFE70A980C99C8620A980C9948640C9921
:1050A0000020009088640C98043000F095FA0C9869
:1050B000183000F091FA00980C9909610A99C1F131
:1050C00007010C9A91610C9949620C99C8640C997A
:1050D00081F8500002980699039A00F003FA0C999F
:1050E00008600B9820B1FFE70C980B99086000E06E
:1050F000FFE708B080BD000080B584B000200390B9
:10510000FFE70398062810D8FFE7039800EB80011B
:1051100040F2C430C2F2000000EB810000F044FA1B
:10512000FFE7039801300390EBE741F27C00C2F205
:105130000000019000F038FA41F29000C2F2000045
:10514000029000F031FA41F20C30C2F2000000F09F
:105150002BFA41F24030C2F2000000F025FA41F291
:105160002C30C2F2000000F01FFA0199029840F2C0
:10517000B832C2F20002116040F2C031C2F2000146
:10518000086004B080BD000083B0029041F224307A
:10519000C2F200000190FFE701980068029988427E
:1051A00005D2FFE7FFE7019800680190F4E7019856
:1051B000009000980199496808440299884209D1F1
:1051C000FFE70298426801994868104448600198D6
:1051D000029000E0FFE70298009000980299496869
:1051E000084401990968884220D1FFE701980068C6
:1051F00040F2BC31C2F20001096888420DD0FFE7DD
:105200000198006842680299486810444860019813
:10521000006800680299086007E040F2BC30C2F202
:105220000000006802990860FFE704E00198006848
:1052300002990860FFE701980299884204D0FFE7CD
:1052400002980199086000E0FFE703B07047000092
:1052500006480068006880F3088862B661B6BFF34C
:105260004F8FBFF36F8F00DF00BF000008ED00E03D
:1052700081B040F2B830C2F200000068006840B966
:10528000FFE741F20431C2F200014FF0FF30086045
:105290000FE040F2B830C2F200000068C068C06899
:1052A00000900098406841F20431C2F200010860A9
:1052B000FFE701B07047000083B00020009040F28B
:1052C000A400C2F200000068013058B1FFE74FF0BF
:1052D000500080F31188BFF36F8FBFF34F8F0290A0
:1052E000FFE7FEE74FF0500080F31188BFF36F8FA8
:1052F000BFF34F8F0190FFE7009808B9FFE7FBE786
:1053000003B0704780B58AB006900020029000F08C
:105310005DFC40F2BC30C2F20000006818B9FFE743
:10532000FFF7EEFD00E0FFE7069841F27801C2F2D8
:1053300000010968084240F0BE80FFE7069800B30C
:10534000FFE70698083006909DF818004007B0B1B6
:10535000FFE7069820F00700083006909DF8180037
:10536000400758B1FFE74FF0500080F31188BFF3BA
:105370006F8FBFF34F8F0990FFE7FEE700E0FFE775
:1053800000E0FFE70698002800F09380FFE706980A
:1053900041F2A401C2F200010968884200F289804A
:1053A000FFE741F22430C2F200000490006805904B
:1053B000FFE705984168069A00209142019007D2C4
:1053C000FFE705980068002818BF01200190FFE75B
:1053D0000198C00730B1FFE7059804900598006870
:1053E0000590E6E7059840F2BC31C2F20001096879
:1053F00088425CD0FFE70498006808300290059866
:10540000006804990860059840680699401A1128B8
:1054100021D3FFE705980699084403909DF80C00F6
:10542000400758B1FFE74FF0500080F31188BFF3F9
:105430006F8FBFF34F8F0890FFE7FEE70598406836
:105440000699401A039948600698059948600398A0
:10545000FFF79AFE00E0FFE70598426841F2A400DA
:10546000C2F200000168891A0160006841F200314F
:10547000C2F20001096888420BD2FFE741F2A400A2
:10548000C2F20000006841F20031C2F2000108607F
:1054900000E0FFE741F27800C2F2000002680599DF
:1054A00048681043486005990020086000E0FFE765
:1054B00000E0FFE700E0FFE700F000FE9DF80800D5
:1054C000400758B1FFE74FF0500080F31188BFF359
:1054D0006F8FBFF34F8F0790FFE7FEE702980AB088
:1054E00080BD000083B002900191009202980438C0
:1054F000029002994FF08070086002980438029080
:10550000019820F001000299086002980438029086
:10551000029945F2B920C0F60000086002981438DC
:105520000290009802990860029820380290029830
:1055300003B0704782B00190019800690090019813
:105540004168806888600199486889684860009867
:1055500040680199884205D1FFE701988068009969
:10556000486000E0FFE701990020086100990868A1
:10557000013808600098006802B0704783B002905C
:1055800001910092029941F2AC20C2F20000086041
:10559000019941F2A800C2F2000008600099802041
:1055A000086003B07047000081B00090009901F1DD
:1055B0000800486000994FF0FF308860009901F1C1
:1055C0000800C860009901F10800086100990020F6
:1055D000086001B07047000081B000900099002081
:1055E000086101B07047000084B0039002910298F6
:1055F000006800900098013020B9FFE70398006927
:10560000019010E0039808300190FFE7019840688E
:1056100000680099884205D8FFE7FFE701984068D5
:105620000190F3E7FFE7019840680299486002980B
:1056300041688860019802998860029801994860E1
:10564000039802990861039908680130086004B062
:105650007047000083B0029001910298406800906A
:1056600000980199486000988068019988600198C5
:1056700000998968486001980099886002980199AA
:105680000861029908680130086003B070470000A3
:1056900082B04FF0500080F31188BFF36F8FBFF3DB
:1056A0004F8F019040F2A400C2F200000168013166
:1056B00001600068012814D1FFE74EF60450CEF2D5
:1056C00000000068000658B1FFE74FF0500080F37B
:1056D0001188BFF36F8FBFF34F8F0090FFE7FEE796
:1056E000FFE702B07047000082B040F2A400C2F2AF
:1056F0000000006858B9FFE74FF0500080F31188B0
:10570000BFF36F8FBFF34F8F0090FFE7FEE740F2CC
:10571000A400C2F20000016801390160006830B9DC
:10572000FFE700200190019880F31188FFE702B0A5
:105730007047000080B586B00390039802900398EC
:10574000002855D0FFE7029808380290029801908F
:105750000198406841F27801C2F2000109680842EC
:105760000BD1FFE74FF0500080F31188BFF36F8F2C
:10577000BFF34F8F0590FFE7FEE70198006858B12F
:10578000FFE74FF0500080F31188BFF36F8FBFF336
:105790004F8F0490FFE7FEE70198406841F27801DF
:1057A000C2F200010968084220D0FFE701980068B2
:1057B000D0B9FFE741F27800C2F200000268019917
:1057C00048689043486000F001FA0198426841F24D
:1057D000A401C2F200010868104408600198FFF7B4
:1057E000D3FC00F06BFC00E0FFE700E0FFE7FFE721
:1057F00006B080BD4EF21001CEF20001002008601C
:105800004EF21802CEF20002106040F20000C2F226
:105810000000006844F6D352C1F26202A0FB02020B
:105820004FF0FF3000EB92104EF21402CEF2000265
:10583000106007200860704780B584B00290002097
:1058400001900298E0B1FFE741F26800C2F2000067
:10585000006858B1FFE74FF0500080F31188BFF3A4
:105860006F8FBFF34F8F0390FFE7FEE700F0AEF9B5
:1058700002980021FFF7E4F900F020FC019000E01D
:10588000FFE7019860B9FFE74EF60451CEF2000140
:105890004FF080500860BFF34F8FBFF36F8F00E071
:1058A000FFE704B080BD000080B58AB00690059186
:1058B00000200290069858B9FFE74FF0500080F39F
:1058C0001188BFF36F8FBFF34F8F0990FFE7FEE79B
:1058D000059858B9FFE74FF0500080F31188BFF3E7
:1058E0006F8FBFF34F8F0890FFE7FEE741F268002C
:1058F000C2F20000006858B1FFE74FF0500080F39B
:105900001188BFF36F8FBFF34F8F0790FFE7FEE75C
:1059100000F05CF941F25430C2F2000000680190DE
:10592000069800680599084404900198069909684A
:10593000884210D2FFE7049806990968884208D285
:10594000FFE704980199884203D9FFE701200290FC
:1059500000E0FFE70FE0049806990968884205D344
:10596000FFE704980199884203D9FFE701200290DC
:1059700000E0FFE7FFE7049806990860029838B155
:10598000FFE704980199401A0021FFF759F900E058
:10599000FFE700F093FB0390039860B9FFE74EF632
:1059A0000451CEF200014FF080500860BFF34F8FDA
:1059B000BFF36F8F00E0FFE70AB080BD80B584B011
:1059C0000290FFF765FE029838B9FFE740F2B43065
:1059D000C2F200000068009002E002980090FFE729
:1059E0000098019001980430FFF7A4FDD0B9FFE7BB
:1059F0000198C06A00EB800140F2C430C2F200009E
:105A000050F8210068B9FFE70198C16A012000FA47
:105A100001F241F27001C2F200010868904308608F
:105A2000FFE700E0FFE70198806A28B1FFE70198EF
:105A30001830FFF77FFD00E0FFE741F26C01C2F292
:105A40000001086801300860019840F2B431C2F2E8
:105A500000010968884210D1FFE70198011D41F259
:105A60004030C2F20000FFF7F5FD41F26001C2F2E2
:105A700000010868013008600CE041F25C01C2F2EC
:105A800000010868013808600198FFF709FAFFF77C
:105A9000EFFBFFE7FFF728FE41F22030C2F20000E3
:105AA000006848B3FFE7019840F2B431C2F2000148
:105AB000096888421ED1FFE741F26800C2F2000087
:105AC000006858B1FFE74FF0500080F31188BFF332
:105AD0006F8FBFF34F8F0390FFE7FEE74EF6045141
